{
  "_format": "hh-sol-artifact-1",
  "contractName": "Bridge",
  "sourceName": "contracts/Bridge.sol",
  "abi": [
    {
      "inputs": [
        {
          "internalType": "address[]",
          "name": "initialValidators",
          "type": "address[]"
        },
        {
          "internalType": "address",
          "name": "WETHAddress_",
          "type": "address"
        }
      ],
      "stateMutability": "nonpayable",
      "type": "constructor"
    },
    {
      "anonymous": false,
      "inputs": [],
      "name": "Pause",
      "type": "event"
    },
    {
      "anonymous": false,
      "inputs": [
        {
          "indexed": false,
          "internalType": "bytes",
          "name": "txId",
          "type": "bytes"
        },
        {
          "indexed": false,
          "internalType": "uint256",
          "name": "blocktime",
          "type": "uint256"
        }
      ],
      "name": "RequestNewSignaturesEvent",
      "type": "event"
    },
    {
      "anonymous": false,
      "inputs": [
        {
          "indexed": true,
          "internalType": "address",
          "name": "token",
          "type": "address"
        }
      ],
      "name": "SupportedTokenAdded",
      "type": "event"
    },
    {
      "anonymous": false,
      "inputs": [
        {
          "indexed": true,
          "internalType": "address",
          "name": "token",
          "type": "address"
        }
      ],
      "name": "SupportedTokenRemoved",
      "type": "event"
    },
    {
      "anonymous": false,
      "inputs": [
        {
          "indexed": true,
          "internalType": "address",
          "name": "token",
          "type": "address"
        }
      ],
      "name": "SupportedWrappedTokenAdded",
      "type": "event"
    },
    {
      "anonymous": false,
      "inputs": [
        {
          "indexed": true,
          "internalType": "address",
          "name": "token",
          "type": "address"
        }
      ],
      "name": "SupportedWrappedTokenRemoved",
      "type": "event"
    },
    {
      "anonymous": false,
      "inputs": [
        {
          "indexed": false,
          "internalType": "address",
          "name": "from",
          "type": "address"
        },
        {
          "indexed": false,
          "internalType": "address",
          "name": "token",
          "type": "address"
        },
        {
          "indexed": false,
          "internalType": "uint256",
          "name": "amount",
          "type": "uint256"
        },
        {
          "indexed": false,
          "internalType": "string",
          "name": "recipient",
          "type": "string"
        },
        {
          "indexed": false,
          "internalType": "uint256",
          "name": "blocktime",
          "type": "uint256"
        }
      ],
      "name": "TokensLockedEvent",
      "type": "event"
    },
    {
      "anonymous": false,
      "inputs": [
        {
          "indexed": false,
          "internalType": "bytes",
          "name": "txId",
          "type": "bytes"
        },
        {
          "indexed": false,
          "internalType": "uint256",
          "name": "operationId",
          "type": "uint256"
        }
      ],
      "name": "TransferCompletedEvent",
      "type": "event"
    },
    {
      "anonymous": false,
      "inputs": [],
      "name": "Unpause",
      "type": "event"
    },
    {
      "anonymous": false,
      "inputs": [
        {
          "indexed": true,
          "internalType": "address",
          "name": "validator",
          "type": "address"
        }
      ],
      "name": "ValidatorAdded",
      "type": "event"
    },
    {
      "anonymous": false,
      "inputs": [
        {
          "indexed": true,
          "internalType": "address",
          "name": "validator",
          "type": "address"
        }
      ],
      "name": "ValidatorRemoved",
      "type": "event"
    },
    {
      "stateMutability": "payable",
      "type": "fallback"
    },
    {
      "inputs": [
        {
          "internalType": "bytes",
          "name": "txId",
          "type": "bytes"
        }
      ],
      "name": "RequestNewSignatures",
      "outputs": [],
      "stateMutability": "nonpayable",
      "type": "function"
    },
    {
      "inputs": [],
      "name": "WETHAddress",
      "outputs": [
        {
          "internalType": "address",
          "name": "",
          "type": "address"
        }
      ],
      "stateMutability": "view",
      "type": "function"
    },
    {
      "inputs": [
        {
          "internalType": "bytes[]",
          "name": "signatures",
          "type": "bytes[]"
        },
        {
          "internalType": "address",
          "name": "token",
          "type": "address"
        },
        {
          "internalType": "uint256",
          "name": "expiration",
          "type": "uint256"
        }
      ],
      "name": "addSupportedToken",
      "outputs": [],
      "stateMutability": "nonpayable",
      "type": "function"
    },
    {
      "inputs": [
        {
          "internalType": "bytes[]",
          "name": "signatures",
          "type": "bytes[]"
        },
        {
          "internalType": "address",
          "name": "token",
          "type": "address"
        },
        {
          "internalType": "uint256",
          "name": "expiration",
          "type": "uint256"
        }
      ],
      "name": "addSupportedWrappedToken",
      "outputs": [],
      "stateMutability": "nonpayable",
      "type": "function"
    },
    {
      "inputs": [
        {
          "internalType": "bytes[]",
          "name": "signatures",
          "type": "bytes[]"
        },
        {
          "internalType": "address",
          "name": "validator",
          "type": "address"
        },
        {
          "internalType": "uint256",
          "name": "expiration",
          "type": "uint256"
        }
      ],
      "name": "addValidator",
      "outputs": [],
      "stateMutability": "nonpayable",
      "type": "function"
    },
    {
      "inputs": [
        {
          "internalType": "bytes",
          "name": "txId",
          "type": "bytes"
        },
        {
          "internalType": "uint256",
          "name": "operationId",
          "type": "uint256"
        },
        {
          "internalType": "address",
          "name": "token",
          "type": "address"
        },
        {
          "internalType": "address",
          "name": "recipient",
          "type": "address"
        },
        {
          "internalType": "uint256",
          "name": "value",
          "type": "uint256"
        },
        {
          "internalType": "bytes[]",
          "name": "signatures",
          "type": "bytes[]"
        },
        {
          "internalType": "uint256",
          "name": "expiration",
          "type": "uint256"
        }
      ],
      "name": "completeTransfer",
      "outputs": [],
      "stateMutability": "nonpayable",
      "type": "function"
    },
    {
      "inputs": [],
      "name": "getSupportedTokensLength",
      "outputs": [
        {
          "internalType": "uint256",
          "name": "",
          "type": "uint256"
        }
      ],
      "stateMutability": "view",
      "type": "function"
    },
    {
      "inputs": [],
      "name": "getSupportedWrappedTokensLength",
      "outputs": [
        {
          "internalType": "uint256",
          "name": "",
          "type": "uint256"
        }
      ],
      "stateMutability": "view",
      "type": "function"
    },
    {
      "inputs": [],
      "name": "getValidatorsLength",
      "outputs": [
        {
          "internalType": "uint256",
          "name": "",
          "type": "uint256"
        }
      ],
      "stateMutability": "view",
      "type": "function"
    },
    {
      "inputs": [
        {
          "internalType": "address",
          "name": "",
          "type": "address"
        }
      ],
      "name": "isSupportedToken",
      "outputs": [
        {
          "internalType": "bool",
          "name": "",
          "type": "bool"
        }
      ],
      "stateMutability": "view",
      "type": "function"
    },
    {
      "inputs": [
        {
          "internalType": "address",
          "name": "",
          "type": "address"
        }
      ],
      "name": "isSupportedWrappedToken",
      "outputs": [
        {
          "internalType": "bool",
          "name": "",
          "type": "bool"
        }
      ],
      "stateMutability": "view",
      "type": "function"
    },
    {
      "inputs": [
        {
          "internalType": "bytes32",
          "name": "",
          "type": "bytes32"
        }
      ],
      "name": "isTransferCompleted",
      "outputs": [
        {
          "internalType": "bool",
          "name": "",
          "type": "bool"
        }
      ],
      "stateMutability": "view",
      "type": "function"
    },
    {
      "inputs": [
        {
          "internalType": "address",
          "name": "",
          "type": "address"
        }
      ],
      "name": "isValidator",
      "outputs": [
        {
          "internalType": "bool",
          "name": "",
          "type": "bool"
        }
      ],
      "stateMutability": "view",
      "type": "function"
    },
    {
      "inputs": [],
      "name": "nonce",
      "outputs": [
        {
          "internalType": "uint256",
          "name": "",
          "type": "uint256"
        }
      ],
      "stateMutability": "view",
      "type": "function"
    },
    {
      "inputs": [
        {
          "internalType": "bytes[]",
          "name": "signatures",
          "type": "bytes[]"
        },
        {
          "internalType": "uint256",
          "name": "expiration",
          "type": "uint256"
        }
      ],
      "name": "pause",
      "outputs": [],
      "stateMutability": "nonpayable",
      "type": "function"
    },
    {
      "inputs": [],
      "name": "paused",
      "outputs": [
        {
          "internalType": "bool",
          "name": "",
          "type": "bool"
        }
      ],
      "stateMutability": "view",
      "type": "function"
    },
    {
      "inputs": [
        {
          "internalType": "bytes[]",
          "name": "signatures",
          "type": "bytes[]"
        },
        {
          "internalType": "address",
          "name": "token",
          "type": "address"
        },
        {
          "internalType": "uint256",
          "name": "expiration",
          "type": "uint256"
        }
      ],
      "name": "removeSupportedToken",
      "outputs": [],
      "stateMutability": "nonpayable",
      "type": "function"
    },
    {
      "inputs": [
        {
          "internalType": "bytes[]",
          "name": "signatures",
          "type": "bytes[]"
        },
        {
          "internalType": "address",
          "name": "token",
          "type": "address"
        },
        {
          "internalType": "uint256",
          "name": "expiration",
          "type": "uint256"
        }
      ],
      "name": "removeSupportedWrappedToken",
      "outputs": [],
      "stateMutability": "nonpayable",
      "type": "function"
    },
    {
      "inputs": [
        {
          "internalType": "bytes[]",
          "name": "signatures",
          "type": "bytes[]"
        },
        {
          "internalType": "address",
          "name": "validator",
          "type": "address"
        },
        {
          "internalType": "uint256",
          "name": "expiration",
          "type": "uint256"
        }
      ],
      "name": "removeValidator",
      "outputs": [],
      "stateMutability": "nonpayable",
      "type": "function"
    },
    {
      "inputs": [
        {
          "internalType": "uint256",
          "name": "",
          "type": "uint256"
        }
      ],
      "name": "supportedTokens",
      "outputs": [
        {
          "internalType": "address",
          "name": "",
          "type": "address"
        }
      ],
      "stateMutability": "view",
      "type": "function"
    },
    {
      "inputs": [
        {
          "internalType": "uint256",
          "name": "",
          "type": "uint256"
        }
      ],
      "name": "supportedWrappedTokens",
      "outputs": [
        {
          "internalType": "address",
          "name": "",
          "type": "address"
        }
      ],
      "stateMutability": "view",
      "type": "function"
    },
    {
      "inputs": [
        {
          "internalType": "address",
          "name": "token",
          "type": "address"
        },
        {
          "internalType": "uint256",
          "name": "amount",
          "type": "uint256"
        },
        {
          "internalType": "string",
          "name": "recipient",
          "type": "string"
        }
      ],
      "name": "transferTokens",
      "outputs": [],
      "stateMutability": "nonpayable",
      "type": "function"
    },
    {
      "inputs": [
        {
          "internalType": "bytes[]",
          "name": "signatures",
          "type": "bytes[]"
        },
        {
          "internalType": "uint256",
          "name": "expiration",
          "type": "uint256"
        }
      ],
      "name": "unpause",
      "outputs": [],
      "stateMutability": "nonpayable",
      "type": "function"
    },
    {
      "inputs": [
        {
          "internalType": "uint256",
          "name": "",
          "type": "uint256"
        }
      ],
      "name": "validators",
      "outputs": [
        {
          "internalType": "address",
          "name": "",
          "type": "address"
        }
      ],
      "stateMutability": "view",
      "type": "function"
    },
    {
      "inputs": [
        {
          "internalType": "string",
          "name": "recipient",
          "type": "string"
        }
      ],
      "name": "wrapAndTransferETH",
      "outputs": [],
      "stateMutability": "payable",
      "type": "function"
    },
    {
      "stateMutability": "payable",
      "type": "receive"
    }
  ],
  "bytecode": "0x6080604052600180556000600a60006101000a81548160ff0219169083151502179055503480156200003057600080fd5b50604051620059473803806200594783398181016040528101906200005691906200044a565b60016000819055506000825111620000a5576040517f08c379a00000000000000000000000000000000000000000000000000000000081526004016200009c9062000519565b60405180910390fd5b60005b8251811015620002cd576000838281518110620000ee577f4e487b7100000000000000000000000000000000000000000000000000000000600052603260045260246000fd5b60200260200101519050600073ffffffffffffffffffffffffffffffffffffffff168173ffffffffffffffffffffffffffffffffffffffff1614156200016b576040517f08c379a000000000000000000000000000000000000000000000000000000000815260040162000162906200053b565b60405180910390fd5b600360008273ffffffffffffffffffffffffffffffffffffffff1673ffffffffffffffffffffffffffffffffffffffff16815260200190815260200160002060009054906101000a900460ff1615620001fb576040517f08c379a0000000000000000000000000000000000000000000000000000000008152600401620001f2906200055d565b60405180910390fd5b6001600360008373ffffffffffffffffffffffffffffffffffffffff1673ffffffffffffffffffffffffffffffffffffffff16815260200190815260200160002060006101000a81548160ff0219169083151502179055506002819080600181540180825580915050600190039060005260206000200160009091909190916101000a81548173ffffffffffffffffffffffffffffffffffffffff021916908373ffffffffffffffffffffffffffffffffffffffff160217905550508080620002c4906200065c565b915050620000a8565b5080600a60016101000a81548173ffffffffffffffffffffffffffffffffffffffff021916908373ffffffffffffffffffffffffffffffffffffffff160217905550600160076000600a60019054906101000a900473ffffffffffffffffffffffffffffffffffffffff1673ffffffffffffffffffffffffffffffffffffffff1673ffffffffffffffffffffffffffffffffffffffff16815260200190815260200160002060006101000a81548160ff0219169083151502179055505050620007ae565b6000620003a8620003a284620005a8565b6200057f565b90508083825260208201905082856020860282011115620003c857600080fd5b60005b85811015620003fc5781620003e1888262000406565b845260208401935060208301925050600181019050620003cb565b5050509392505050565b600081519050620004178162000794565b92915050565b600082601f8301126200042f57600080fd5b81516200044184826020860162000391565b91505092915050565b600080604083850312156200045e57600080fd5b600083015167ffffffffffffffff8111156200047957600080fd5b62000487858286016200041d565b92505060206200049a8582860162000406565b9150509250929050565b6000620004b3601383620005d7565b9150620004c08262000719565b602082019050919050565b6000620004da601183620005d7565b9150620004e78262000742565b602082019050919050565b600062000501601483620005d7565b91506200050e826200076b565b602082019050919050565b600060208201905081810360008301526200053481620004a4565b9050919050565b600060208201905081810360008301526200055681620004cb565b9050919050565b600060208201905081810360008301526200057881620004f2565b9050919050565b60006200058b6200059e565b905062000599828262000626565b919050565b6000604051905090565b600067ffffffffffffffff821115620005c657620005c5620006d9565b5b602082029050602081019050919050565b600082825260208201905092915050565b6000620005f582620005fc565b9050919050565b600073ffffffffffffffffffffffffffffffffffffffff82169050919050565b6000819050919050565b620006318262000708565b810181811067ffffffffffffffff82111715620006535762000652620006d9565b5b80604052505050565b600062000669826200061c565b91507fffffffffffffffffffffffffffffffffffffffffffffffffffffffffffffffff8214156200069f576200069e620006aa565b5b600182019050919050565b7f4e487b7100000000000000000000000000000000000000000000000000000000600052601160045260246000fd5b7f4e487b7100000000000000000000000000000000000000000000000000000000600052604160045260246000fd5b6000601f19601f8301169050919050565b7f56616c696461746f727320726571756972656400000000000000000000000000600082015250565b7f496e76616c69642076616c696461746f72000000000000000000000000000000600082015250565b7f56616c696461746f72206e6f7420756e69717565000000000000000000000000600082015250565b6200079f81620005e8565b8114620007ab57600080fd5b50565b61518980620007be6000396000f3fe60806040526004361061016a5760003560e01c80638bcb57f3116100d1578063c62556261161008a578063f960cd6b11610064578063f960cd6b146105b5578063facd743b146105e0578063fdc520e11461061d578063ff7a071b14610646576101aa565b8063c625562614610526578063e91f042014610563578063ef69b68f1461058c576101aa565b80638bcb57f3146104135780638df236d81461042f578063aa4efa5b14610458578063ae5f872714610495578063affed0e0146104d2578063c5ce2eb2146104fd576101aa565b8063493d828011610123578063493d8280146103195780635c975abb146103425780635d62263b1461036d57806375be8642146103965780637725dfe8146103bf57806388b2a80a146103ea576101aa565b806305b18e03146101e55780630af88b241461020e5780631cd775bb14610239578063201efb3f14610262578063240028e81461029f57806335aa2e44146102dc576101aa565b366101aa576040517f08c379a00000000000000000000000000000000000000000000000000000000081526004016101a190614654565b60405180910390fd5b6040517f08c379a00000000000000000000000000000000000000000000000000000000081526004016101dc90614654565b60405180910390fd5b3480156101f157600080fd5b5061020c60048036038101906102079190613c0f565b610671565b005b34801561021a57600080fd5b50610223610bb6565b604051610230919061432d565b60405180910390f35b34801561024557600080fd5b50610260600480360381019061025b9190613b28565b610bdc565b005b34801561026e57600080fd5b5061028960048036038101906102849190613a31565b610d7c565b6040516102969190614402565b60405180910390f35b3480156102ab57600080fd5b506102c660048036038101906102c19190613a31565b610d9c565b6040516102d39190614402565b60405180910390f35b3480156102e857600080fd5b5061030360048036038101906102fe9190613d1e565b610dbc565b604051610310919061432d565b60405180910390f35b34801561032557600080fd5b50610340600480360381019061033b9190613bce565b610dfb565b005b34801561034e57600080fd5b50610357610e94565b6040516103649190614402565b60405180910390f35b34801561037957600080fd5b50610394600480360381019061038f9190613ac1565b610ea7565b005b3480156103a257600080fd5b506103bd60048036038101906103b89190613ac1565b611183565b005b3480156103cb57600080fd5b506103d46113fd565b6040516103e191906146f4565b60405180910390f35b3480156103f657600080fd5b50610411600480360381019061040c9190613ac1565b61140a565b005b61042d60048036038101906104289190613cdd565b6116e6565b005b34801561043b57600080fd5b5061045660048036038101906104519190613a5a565b611950565b005b34801561046457600080fd5b5061047f600480360381019061047a9190613ba5565b611f74565b60405161048c9190614402565b60405180910390f35b3480156104a157600080fd5b506104bc60048036038101906104b79190613d1e565b611f94565b6040516104c9919061432d565b60405180910390f35b3480156104de57600080fd5b506104e7611fd3565b6040516104f491906146f4565b60405180910390f35b34801561050957600080fd5b50610524600480360381019061051f9190613ac1565b611fd9565b005b34801561053257600080fd5b5061054d60048036038101906105489190613d1e565b612253565b60405161055a919061432d565b60405180910390f35b34801561056f57600080fd5b5061058a60048036038101906105859190613b28565b612292565b005b34801561059857600080fd5b506105b360048036038101906105ae9190613ac1565b612417565b005b3480156105c157600080fd5b506105ca6126f3565b6040516105d791906146f4565b60405180910390f35b3480156105ec57600080fd5b5061060760048036038101906106029190613a31565b612700565b6040516106149190614402565b60405180910390f35b34801561062957600080fd5b50610644600480360381019061063f9190613ac1565b612720565b005b34801561065257600080fd5b5061065b61299a565b60405161066891906146f4565b60405180910390f35b600a60009054906101000a900460ff16156106c1576040517f08c379a00000000000000000000000000000000000000000000000000000000081526004016106b8906144b4565b60405180910390fd5b60026000541415610707576040517f08c379a00000000000000000000000000000000000000000000000000000000081526004016106fe906146b4565b60405180910390fd5b60026000819055506103e84261071d9190614a3f565b81101561075f576040517f08c379a0000000000000000000000000000000000000000000000000000000008152600401610756906144f4565b60405180910390fd5b600560008673ffffffffffffffffffffffffffffffffffffffff1673ffffffffffffffffffffffffffffffffffffffff16815260200190815260200160002060009054906101000a900460ff16806108005750600760008673ffffffffffffffffffffffffffffffffffffffff1673ffffffffffffffffffffffffffffffffffffffff16815260200190815260200160002060009054906101000a900460ff165b61083f576040517f08c379a000000000000000000000000000000000000000000000000000000000815260040161083690614574565b60405180910390fd5b60006108b660088081111561087d577f4e487b7100000000000000000000000000000000000000000000000000000000600052602160045260246000fd5b8989898989308960405160200161089b98979695949392919061429f565b604051602081830303815290604052805190602001206129a7565b905060006108eb89896040516020016108d0929190614193565b604051602081830303815290604052805190602001206129a7565b90506009600082815260200190815260200160002060009054906101000a900460ff161561094e576040517f08c379a0000000000000000000000000000000000000000000000000000000008152600401610945906145b4565b60405180910390fd5b60016009600083815260200190815260200160002060006101000a81548160ff02191690831515021790555061098484836129d7565b60008773ffffffffffffffffffffffffffffffffffffffff166040516024016040516020818303038152906040527f313ce567000000000000000000000000000000000000000000000000000000007bffffffffffffffffffffffffffffffffffffffffffffffffffffffff19166020820180517bffffffffffffffffffffffffffffffffffffffffffffffffffffffff8381831617835250505050604051610a2d919061417c565b600060405180830381855afa9150503d8060008114610a68576040519150601f19603f3d011682016040523d82523d6000602084013e610a6d565b606091505b50915050600081806020019051810190610a879190613d70565b90506000610a958883612dc1565b9050600560008b73ffffffffffffffffffffffffffffffffffffffff1673ffffffffffffffffffffffffffffffffffffffff16815260200190815260200160002060009054906101000a900460ff1615610b5b578973ffffffffffffffffffffffffffffffffffffffff166340c10f198a8a6040518363ffffffff1660e01b8152600401610b249291906143d9565b600060405180830381600087803b158015610b3e57600080fd5b505af1158015610b52573d6000803e3d6000fd5b50505050610b67565b610b668a8a83612dff565b5b7f87d736ddec252f246151c10998db4ad3bb9717bfe77c0dff2e9737b6e44d6df58c8c604051610b98929190614462565b60405180910390a15050505050600160008190555050505050505050565b600a60019054906101000a900473ffffffffffffffffffffffffffffffffffffffff1681565b600a60009054906101000a900460ff16610c2b576040517f08c379a0000000000000000000000000000000000000000000000000000000008152600401610c2290614554565b60405180910390fd5b6103e842610c399190614a3f565b811015610c7b576040517f08c379a0000000000000000000000000000000000000000000000000000000008152600401610c72906144f4565b60405180910390fd5b6000610cf060076008811115610cba577f4e487b7100000000000000000000000000000000000000000000000000000000600052602160045260246000fd5b60006001543086604051602001610cd5959493929190614240565b604051602081830303815290604052805190602001206129a7565b9050610cfc83826129d7565b6001600a60006101000a81548160ff0219169083151502179055506001806000828254610d299190614810565b925050819055506000600a60006101000a81548160ff0219169083151502179055507f7805862f689e2f13df9f062ff482ad3ad112aca9e0847911ed832e158c525b3360405160405180910390a1505050565b60056020528060005260406000206000915054906101000a900460ff1681565b60076020528060005260406000206000915054906101000a900460ff1681565b60028181548110610dcc57600080fd5b906000526020600020016000915054906101000a900473ffffffffffffffffffffffffffffffffffffffff1681565b600a60009054906101000a900460ff1615610e4b576040517f08c379a0000000000000000000000000000000000000000000000000000000008152600401610e42906144b4565b60405180910390fd5b7f41f9d865e9570fc2c0097e4bcdf9738724c95a54729d01e0e51ae983b3d0fcaf816103e842610e7b9190614a3f565b604051610e89929190614462565b60405180910390a150565b600a60009054906101000a900460ff1681565b6103e842610eb59190614a3f565b811015610ef7576040517f08c379a0000000000000000000000000000000000000000000000000000000008152600401610eee906144f4565b60405180910390fd5b600560008373ffffffffffffffffffffffffffffffffffffffff1673ffffffffffffffffffffffffffffffffffffffff16815260200190815260200160002060009054906101000a900460ff16610f83576040517f08c379a0000000000000000000000000000000000000000000000000000000008152600401610f7a90614514565b60405180910390fd5b6000610ff760066008811115610fc2577f4e487b7100000000000000000000000000000000000000000000000000000000600052602160045260246000fd5b846001543086604051602001610fdc9594939291906141e1565b604051602081830303815290604052805190602001206129a7565b905061100384826129d7565b6000600560008573ffffffffffffffffffffffffffffffffffffffff1673ffffffffffffffffffffffffffffffffffffffff16815260200190815260200160002060006101000a81548160ff02191690831515021790555060005b600680549050811015611120578373ffffffffffffffffffffffffffffffffffffffff16600682815481106110bc577f4e487b7100000000000000000000000000000000000000000000000000000000600052603260045260246000fd5b9060005260206000200160009054906101000a900473ffffffffffffffffffffffffffffffffffffffff1673ffffffffffffffffffffffffffffffffffffffff16141561110d5761110c81612e85565b5b808061111890614bd3565b91505061105e565b5060018060008282546111339190614810565b925050819055508273ffffffffffffffffffffffffffffffffffffffff167fc4d7c78b5869618497de798f19809c2d74b2afca7a1190ca9544ad256f35a3c760405160405180910390a250505050565b6103e8426111919190614a3f565b8110156111d3576040517f08c379a00000000000000000000000000000000000000000000000000000000081526004016111ca906144f4565b60405180910390fd5b600360008373ffffffffffffffffffffffffffffffffffffffff1673ffffffffffffffffffffffffffffffffffffffff16815260200190815260200160002060009054906101000a900460ff1615611260576040517f08c379a0000000000000000000000000000000000000000000000000000000008152600401611257906146d4565b60405180910390fd5b60006112d46001600881111561129f577f4e487b7100000000000000000000000000000000000000000000000000000000600052602160045260246000fd5b8460015430866040516020016112b99594939291906141e1565b604051602081830303815290604052805190602001206129a7565b90506112e084826129d7565b6001600360008573ffffffffffffffffffffffffffffffffffffffff1673ffffffffffffffffffffffffffffffffffffffff16815260200190815260200160002060006101000a81548160ff0219169083151502179055506002839080600181540180825580915050600190039060005260206000200160009091909190916101000a81548173ffffffffffffffffffffffffffffffffffffffff021916908373ffffffffffffffffffffffffffffffffffffffff16021790555060018060008282546113ad9190614810565b925050819055508273ffffffffffffffffffffffffffffffffffffffff167fe366c1c0452ed8eec96861e9e54141ebff23c9ec89fe27b996b45f5ec388498760405160405180910390a250505050565b6000600680549050905090565b6103e8426114189190614a3f565b81101561145a576040517f08c379a0000000000000000000000000000000000000000000000000000000008152600401611451906144f4565b60405180910390fd5b600360008373ffffffffffffffffffffffffffffffffffffffff1673ffffffffffffffffffffffffffffffffffffffff16815260200190815260200160002060009054906101000a900460ff166114e6576040517f08c379a00000000000000000000000000000000000000000000000000000000081526004016114dd90614614565b60405180910390fd5b600061155a60026008811115611525577f4e487b7100000000000000000000000000000000000000000000000000000000600052602160045260246000fd5b84600154308660405160200161153f9594939291906141e1565b604051602081830303815290604052805190602001206129a7565b905061156684826129d7565b6000600360008573ffffffffffffffffffffffffffffffffffffffff1673ffffffffffffffffffffffffffffffffffffffff16815260200190815260200160002060006101000a81548160ff02191690831515021790555060018060008282546115d09190614810565b9250508190555060005b60028054905081101561169c578373ffffffffffffffffffffffffffffffffffffffff1660028281548110611638577f4e487b7100000000000000000000000000000000000000000000000000000000600052603260045260246000fd5b9060005260206000200160009054906101000a900473ffffffffffffffffffffffffffffffffffffffff1673ffffffffffffffffffffffffffffffffffffffff1614156116895761168881613062565b5b808061169490614bd3565b9150506115da565b508273ffffffffffffffffffffffffffffffffffffffff167fe1434e25d6611e0db941968fdc97811c982ac1602e951637d206f5fdda9dd8f160405160405180910390a250505050565b600a60009054906101000a900460ff1615611736576040517f08c379a000000000000000000000000000000000000000000000000000000000815260040161172d906144b4565b60405180910390fd5b6002600054141561177c576040517f08c379a0000000000000000000000000000000000000000000000000000000008152600401611773906146b4565b60405180910390fd5b60026000819055506000349050600061179682601261323f565b9050600081116117db576040517f08c379a00000000000000000000000000000000000000000000000000000000081526004016117d290614634565b60405180910390fd5b60006117e8826012612dc1565b836117f39190614a99565b90506000811115611846573373ffffffffffffffffffffffffffffffffffffffff166108fc829081150290604051600060405180830381858888f19350505050158015611844573d6000803e3d6000fd5b505b600a60019054906101000a900473ffffffffffffffffffffffffffffffffffffffff1673ffffffffffffffffffffffffffffffffffffffff1663d0e30db082856118909190614a99565b6040518263ffffffff1660e01b81526004016000604051808303818588803b1580156118bb57600080fd5b505af11580156118cf573d6000803e3d6000fd5b50505050507f943004f24b74daf8f1b3184c2703c86aa64f95fc624bab58e578754f7bf8ab6b33600a60019054906101000a900473ffffffffffffffffffffffffffffffffffffffff1684876103e8426119299190614a3f565b60405161193a95949392919061437f565b60405180910390a1505050600160008190555050565b600a60009054906101000a900460ff16156119a0576040517f08c379a0000000000000000000000000000000000000000000000000000000008152600401611997906144b4565b60405180910390fd5b600260005414156119e6576040517f08c379a00000000000000000000000000000000000000000000000000000000081526004016119dd906146b4565b60405180910390fd5b6002600081905550600560008473ffffffffffffffffffffffffffffffffffffffff1673ffffffffffffffffffffffffffffffffffffffff16815260200190815260200160002060009054906101000a900460ff1680611a8f5750600760008473ffffffffffffffffffffffffffffffffffffffff1673ffffffffffffffffffffffffffffffffffffffff16815260200190815260200160002060009054906101000a900460ff165b611ace576040517f08c379a0000000000000000000000000000000000000000000000000000000008152600401611ac590614574565b60405180910390fd5b60008373ffffffffffffffffffffffffffffffffffffffff166040516024016040516020818303038152906040527f313ce567000000000000000000000000000000000000000000000000000000007bffffffffffffffffffffffffffffffffffffffffffffffffffffffff19166020820180517bffffffffffffffffffffffffffffffffffffffffffffffffffffffff8381831617835250505050604051611b77919061417c565b600060405180830381855afa9150503d8060008114611bb2576040519150601f19603f3d011682016040523d82523d6000602084013e611bb7565b606091505b50915050600081806020019051810190611bd19190613d70565b9050611be6611be0858361323f565b82612dc1565b9350600560008673ffffffffffffffffffffffffffffffffffffffff1673ffffffffffffffffffffffffffffffffffffffff16815260200190815260200160002060009054906101000a900460ff1615611cb857611c468533308761327d565b8473ffffffffffffffffffffffffffffffffffffffff16639dc29fac30866040518363ffffffff1660e01b8152600401611c819291906143d9565b600060405180830381600087803b158015611c9b57600080fd5b505af1158015611caf573d6000803e3d6000fd5b50505050611ec7565b60008573ffffffffffffffffffffffffffffffffffffffff166370a0823160e01b30604051602401611cea919061432d565b604051602081830303815290604052907bffffffffffffffffffffffffffffffffffffffffffffffffffffffff19166020820180517bffffffffffffffffffffffffffffffffffffffffffffffffffffffff8381831617835250505050604051611d54919061417c565b600060405180830381855afa9150503d8060008114611d8f576040519150601f19603f3d011682016040523d82523d6000602084013e611d94565b606091505b50915050600081806020019051810190611dae9190613d47565b9050611dbc8733308961327d565b60008773ffffffffffffffffffffffffffffffffffffffff166370a0823160e01b30604051602401611dee919061432d565b604051602081830303815290604052907bffffffffffffffffffffffffffffffffffffffffffffffffffffffff19166020820180517bffffffffffffffffffffffffffffffffffffffffffffffffffffffff8381831617835250505050604051611e58919061417c565b600060405180830381855afa9150503d8060008114611e93576040519150601f19603f3d011682016040523d82523d6000602084013e611e98565b606091505b50915050600081806020019051810190611eb29190613d47565b90508281611ec09190614a99565b9750505050505b6000611ed3858361323f565b905060008111611f18576040517f08c379a0000000000000000000000000000000000000000000000000000000008152600401611f0f90614634565b60405180910390fd5b7f943004f24b74daf8f1b3184c2703c86aa64f95fc624bab58e578754f7bf8ab6b338783876103e842611f4b9190614a3f565b604051611f5c95949392919061437f565b60405180910390a15050506001600081905550505050565b60096020528060005260406000206000915054906101000a900460ff1681565b60068181548110611fa457600080fd5b906000526020600020016000915054906101000a900473ffffffffffffffffffffffffffffffffffffffff1681565b60015481565b6103e842611fe79190614a3f565b811015612029576040517f08c379a0000000000000000000000000000000000000000000000000000000008152600401612020906144f4565b60405180910390fd5b600560008373ffffffffffffffffffffffffffffffffffffffff1673ffffffffffffffffffffffffffffffffffffffff16815260200190815260200160002060009054906101000a900460ff16156120b6576040517f08c379a00000000000000000000000000000000000000000000000000000000081526004016120ad906144d4565b60405180910390fd5b600061212a600560088111156120f5577f4e487b7100000000000000000000000000000000000000000000000000000000600052602160045260246000fd5b84600154308660405160200161210f9594939291906141e1565b604051602081830303815290604052805190602001206129a7565b905061213684826129d7565b6001600560008573ffffffffffffffffffffffffffffffffffffffff1673ffffffffffffffffffffffffffffffffffffffff16815260200190815260200160002060006101000a81548160ff0219169083151502179055506006839080600181540180825580915050600190039060005260206000200160009091909190916101000a81548173ffffffffffffffffffffffffffffffffffffffff021916908373ffffffffffffffffffffffffffffffffffffffff16021790555060018060008282546122039190614810565b925050819055508273ffffffffffffffffffffffffffffffffffffffff167f73ef58e3c2e3da95dfd8fd7f3d28c23b072dba3484a5b53a196bc592056ceb1f60405160405180910390a250505050565b6008818154811061226357600080fd5b906000526020600020016000915054906101000a900473ffffffffffffffffffffffffffffffffffffffff1681565b600a60009054906101000a900460ff16156122e2576040517f08c379a00000000000000000000000000000000000000000000000000000000081526004016122d9906144b4565b60405180910390fd5b6103e8426122f09190614a3f565b811015612332576040517f08c379a0000000000000000000000000000000000000000000000000000000008152600401612329906144f4565b60405180910390fd5b60006123a660076008811115612371577f4e487b7100000000000000000000000000000000000000000000000000000000600052602160045260246000fd5b60018054308660405160200161238b959493929190614240565b604051602081830303815290604052805190602001206129a7565b90506123b283826129d7565b6001600a60006101000a81548160ff02191690831515021790555060018060008282546123df9190614810565b925050819055507f6985a02210a168e66602d3235cb6db0e70f92b3ba4d376a33c0f3d9434bff62560405160405180910390a1505050565b6103e8426124259190614a3f565b811015612467576040517f08c379a000000000000000000000000000000000000000000000000000000000815260040161245e906144f4565b60405180910390fd5b600760008373ffffffffffffffffffffffffffffffffffffffff1673ffffffffffffffffffffffffffffffffffffffff16815260200190815260200160002060009054906101000a900460ff166124f3576040517f08c379a00000000000000000000000000000000000000000000000000000000081526004016124ea90614514565b60405180910390fd5b600061256760046008811115612532577f4e487b7100000000000000000000000000000000000000000000000000000000600052602160045260246000fd5b84600154308660405160200161254c9594939291906141e1565b604051602081830303815290604052805190602001206129a7565b905061257384826129d7565b6000600760008573ffffffffffffffffffffffffffffffffffffffff1673ffffffffffffffffffffffffffffffffffffffff16815260200190815260200160002060006101000a81548160ff02191690831515021790555060005b600880549050811015612690578373ffffffffffffffffffffffffffffffffffffffff166008828154811061262c577f4e487b7100000000000000000000000000000000000000000000000000000000600052603260045260246000fd5b9060005260206000200160009054906101000a900473ffffffffffffffffffffffffffffffffffffffff1673ffffffffffffffffffffffffffffffffffffffff16141561267d5761267c81613306565b5b808061268890614bd3565b9150506125ce565b5060018060008282546126a39190614810565b925050819055508273ffffffffffffffffffffffffffffffffffffffff167fbea12876694c4055c71f74308f752b9027cf3d554194000a366abddfc239a30660405160405180910390a250505050565b6000600880549050905090565b60036020528060005260406000206000915054906101000a900460ff1681565b6103e84261272e9190614a3f565b811015612770576040517f08c379a0000000000000000000000000000000000000000000000000000000008152600401612767906144f4565b60405180910390fd5b600760008373ffffffffffffffffffffffffffffffffffffffff1673ffffffffffffffffffffffffffffffffffffffff16815260200190815260200160002060009054906101000a900460ff16156127fd576040517f08c379a00000000000000000000000000000000000000000000000000000000081526004016127f4906144d4565b60405180910390fd5b60006128716003600881111561283c577f4e487b7100000000000000000000000000000000000000000000000000000000600052602160045260246000fd5b8460015430866040516020016128569594939291906141e1565b604051602081830303815290604052805190602001206129a7565b905061287d84826129d7565b6001600760008573ffffffffffffffffffffffffffffffffffffffff1673ffffffffffffffffffffffffffffffffffffffff16815260200190815260200160002060006101000a81548160ff0219169083151502179055506008839080600181540180825580915050600190039060005260206000200160009091909190916101000a81548173ffffffffffffffffffffffffffffffffffffffff021916908373ffffffffffffffffffffffffffffffffffffffff160217905550600180600082825461294a9190614810565b925050819055508273ffffffffffffffffffffffffffffffffffffffff167fd1be2e90bd3d24839d9dd94ad871068e1f9688b02fa43f2a62c9975dfa9de2d760405160405180910390a250505050565b6000600280549050905090565b6000816040516020016129ba91906141bb565b604051602081830303815290604052805190602001209050919050565b6001600a60026003600a6002805490506129f19190614a3f565b6129fb919061489d565b612a059190614a3f565b612a0f919061489d565b612a199190614810565b82511015612a5c576040517f08c379a0000000000000000000000000000000000000000000000000000000008152600401612a5390614594565b60405180910390fd5b6000600190506000835167ffffffffffffffff811115612aa5577f4e487b7100000000000000000000000000000000000000000000000000000000600052604160045260246000fd5b604051908082528060200260200182016040528015612ad35781602001602082028036833780820191505090505b50905060005b8451811015612cc2576000612b2e85878481518110612b21577f4e487b7100000000000000000000000000000000000000000000000000000000600052603260045260246000fd5b60200260200101516134e3565b9050600360008273ffffffffffffffffffffffffffffffffffffffff1673ffffffffffffffffffffffffffffffffffffffff16815260200190815260200160002060009054906101000a900460ff168015612bd35750600460008273ffffffffffffffffffffffffffffffffffffffff1673ffffffffffffffffffffffffffffffffffffffff16815260200190815260200160002060009054906101000a900460ff16155b15612ca9576001600460008373ffffffffffffffffffffffffffffffffffffffff1673ffffffffffffffffffffffffffffffffffffffff16815260200190815260200160002060006101000a81548160ff02191690831515021790555080838381518110612c6a577f4e487b7100000000000000000000000000000000000000000000000000000000600052603260045260246000fd5b602002602001019073ffffffffffffffffffffffffffffffffffffffff16908173ffffffffffffffffffffffffffffffffffffffff1681525050612cae565b600093505b508080612cba90614bd3565b915050612ad9565b5081612d03576040517f08c379a0000000000000000000000000000000000000000000000000000000008152600401612cfa906145f4565b60405180910390fd5b60005b8151811015612dba57600060046000848481518110612d4e577f4e487b7100000000000000000000000000000000000000000000000000000000600052603260045260246000fd5b602002602001015173ffffffffffffffffffffffffffffffffffffffff1673ffffffffffffffffffffffffffffffffffffffff16815260200190815260200160002060006101000a81548160ff0219169083151502179055508080612db290614bd3565b915050612d06565b5050505050565b600060088260ff161115612df657600882612ddc9190614acd565b600a612de89190614921565b83612df39190614a3f565b92505b82905092915050565b612e808363a9059cbb60e01b8484604051602401612e1e9291906143d9565b604051602081830303815290604052907bffffffffffffffffffffffffffffffffffffffffffffffffffffffff19166020820180517bffffffffffffffffffffffffffffffffffffffffffffffffffffffff83818316178352505050506135b6565b505050565b6006805490508110612ecc576040517f08c379a0000000000000000000000000000000000000000000000000000000008152600401612ec3906145d4565b60405180910390fd5b60008190505b6001600680549050612ee49190614a99565b811015612ff1576006600182612efa9190614810565b81548110612f31577f4e487b7100000000000000000000000000000000000000000000000000000000600052603260045260246000fd5b9060005260206000200160009054906101000a900473ffffffffffffffffffffffffffffffffffffffff1660068281548110612f96577f4e487b7100000000000000000000000000000000000000000000000000000000600052603260045260246000fd5b9060005260206000200160006101000a81548173ffffffffffffffffffffffffffffffffffffffff021916908373ffffffffffffffffffffffffffffffffffffffff1602179055508080612fe990614bd3565b915050612ed2565b50600680548061302a577f4e487b7100000000000000000000000000000000000000000000000000000000600052603160045260246000fd5b6001900381819060005260206000200160006101000a81549073ffffffffffffffffffffffffffffffffffffffff0219169055905550565b60028054905081106130a9576040517f08c379a00000000000000000000000000000000000000000000000000000000081526004016130a0906145d4565b60405180910390fd5b60008190505b60016002805490506130c19190614a99565b8110156131ce5760026001826130d79190614810565b8154811061310e577f4e487b7100000000000000000000000000000000000000000000000000000000600052603260045260246000fd5b9060005260206000200160009054906101000a900473ffffffffffffffffffffffffffffffffffffffff1660028281548110613173577f4e487b7100000000000000000000000000000000000000000000000000000000600052603260045260246000fd5b9060005260206000200160006101000a81548173ffffffffffffffffffffffffffffffffffffffff021916908373ffffffffffffffffffffffffffffffffffffffff16021790555080806131c690614bd3565b9150506130af565b506002805480613207577f4e487b7100000000000000000000000000000000000000000000000000000000600052603160045260246000fd5b6001900381819060005260206000200160006101000a81549073ffffffffffffffffffffffffffffffffffffffff0219169055905550565b600060088260ff1611156132745760088261325a9190614acd565b600a6132669190614921565b83613271919061489d565b92505b82905092915050565b613300846323b872dd60e01b85858560405160240161329e93929190614348565b604051602081830303815290604052907bffffffffffffffffffffffffffffffffffffffffffffffffffffffff19166020820180517bffffffffffffffffffffffffffffffffffffffffffffffffffffffff83818316178352505050506135b6565b50505050565b600880549050811061334d576040517f08c379a0000000000000000000000000000000000000000000000000000000008152600401613344906145d4565b60405180910390fd5b60008190505b60016008805490506133659190614a99565b81101561347257600860018261337b9190614810565b815481106133b2577f4e487b7100000000000000000000000000000000000000000000000000000000600052603260045260246000fd5b9060005260206000200160009054906101000a900473ffffffffffffffffffffffffffffffffffffffff1660088281548110613417577f4e487b7100000000000000000000000000000000000000000000000000000000600052603260045260246000fd5b9060005260206000200160006101000a81548173ffffffffffffffffffffffffffffffffffffffff021916908373ffffffffffffffffffffffffffffffffffffffff160217905550808061346a90614bd3565b915050613353565b5060088054806134ab577f4e487b7100000000000000000000000000000000000000000000000000000000600052603160045260246000fd5b6001900381819060005260206000200160006101000a81549073ffffffffffffffffffffffffffffffffffffffff0219169055905550565b60008060008060418551146134fe57600093505050506135b0565b6020850151925060408501519150606085015160001a9050601b8160ff16101561353257601b8161352f9190614866565b90505b601b8160ff161415801561354a5750601c8160ff1614155b1561355b57600093505050506135b0565b6001868285856040516000815260200160405260405161357e949392919061441d565b6020604051602081039080840390855afa1580156135a0573d6000803e3d6000fd5b5050506020604051035193505050505b92915050565b6000613618826040518060400160405280602081526020017f5361666545524332303a206c6f772d6c6576656c2063616c6c206661696c65648152508573ffffffffffffffffffffffffffffffffffffffff1661367d9092919063ffffffff16565b905060008151111561367857808060200190518101906136389190613b7c565b613677576040517f08c379a000000000000000000000000000000000000000000000000000000000815260040161366e90614694565b60405180910390fd5b5b505050565b606061368c8484600085613695565b90509392505050565b6060824710156136da576040517f08c379a00000000000000000000000000000000000000000000000000000000081526004016136d190614534565b60405180910390fd5b6136e3856137a9565b613722576040517f08c379a000000000000000000000000000000000000000000000000000000000815260040161371990614674565b60405180910390fd5b6000808673ffffffffffffffffffffffffffffffffffffffff16858760405161374b919061417c565b60006040518083038185875af1925050503d8060008114613788576040519150601f19603f3d011682016040523d82523d6000602084013e61378d565b606091505b509150915061379d8282866137cc565b92505050949350505050565b6000808273ffffffffffffffffffffffffffffffffffffffff163b119050919050565b606083156137dc5782905061382c565b6000835111156137ef5782518084602001fd5b816040517f08c379a00000000000000000000000000000000000000000000000000000000081526004016138239190614492565b60405180910390fd5b9392505050565b600061384661384184614734565b61470f565b9050808382526020820190508285602086028201111561386557600080fd5b60005b858110156138af57813567ffffffffffffffff81111561388757600080fd5b808601613894898261399e565b85526020850194506020840193505050600181019050613868565b5050509392505050565b60006138cc6138c784614760565b61470f565b9050828152602081018484840111156138e457600080fd5b6138ef848285614b60565b509392505050565b600061390a61390584614791565b61470f565b90508281526020810184848401111561392257600080fd5b61392d848285614b60565b509392505050565b600081359050613944816150e0565b92915050565b600082601f83011261395b57600080fd5b813561396b848260208601613833565b91505092915050565b600081519050613983816150f7565b92915050565b6000813590506139988161510e565b92915050565b600082601f8301126139af57600080fd5b81356139bf8482602086016138b9565b91505092915050565b600082601f8301126139d957600080fd5b81356139e98482602086016138f7565b91505092915050565b600081359050613a0181615125565b92915050565b600081519050613a1681615125565b92915050565b600081519050613a2b8161513c565b92915050565b600060208284031215613a4357600080fd5b6000613a5184828501613935565b91505092915050565b600080600060608486031215613a6f57600080fd5b6000613a7d86828701613935565b9350506020613a8e868287016139f2565b925050604084013567ffffffffffffffff811115613aab57600080fd5b613ab7868287016139c8565b9150509250925092565b600080600060608486031215613ad657600080fd5b600084013567ffffffffffffffff811115613af057600080fd5b613afc8682870161394a565b9350506020613b0d86828701613935565b9250506040613b1e868287016139f2565b9150509250925092565b60008060408385031215613b3b57600080fd5b600083013567ffffffffffffffff811115613b5557600080fd5b613b618582860161394a565b9250506020613b72858286016139f2565b9150509250929050565b600060208284031215613b8e57600080fd5b6000613b9c84828501613974565b91505092915050565b600060208284031215613bb757600080fd5b6000613bc584828501613989565b91505092915050565b600060208284031215613be057600080fd5b600082013567ffffffffffffffff811115613bfa57600080fd5b613c068482850161399e565b91505092915050565b600080600080600080600060e0888a031215613c2a57600080fd5b600088013567ffffffffffffffff811115613c4457600080fd5b613c508a828b0161399e565b9750506020613c618a828b016139f2565b9650506040613c728a828b01613935565b9550506060613c838a828b01613935565b9450506080613c948a828b016139f2565b93505060a088013567ffffffffffffffff811115613cb157600080fd5b613cbd8a828b0161394a565b92505060c0613cce8a828b016139f2565b91505092959891949750929550565b600060208284031215613cef57600080fd5b600082013567ffffffffffffffff811115613d0957600080fd5b613d15848285016139c8565b91505092915050565b600060208284031215613d3057600080fd5b6000613d3e848285016139f2565b91505092915050565b600060208284031215613d5957600080fd5b6000613d6784828501613a07565b91505092915050565b600060208284031215613d8257600080fd5b6000613d9084828501613a1c565b91505092915050565b613da281614b01565b82525050565b613db9613db482614b01565b614c1c565b82525050565b613dc881614b13565b82525050565b613ddf613dda82614b13565b614c2e565b82525050565b613dee81614b1f565b82525050565b613e05613e0082614b1f565b614c40565b82525050565b6000613e16826147c2565b613e2081856147d8565b9350613e30818560208601614b6f565b613e3981614d05565b840191505092915050565b6000613e4f826147c2565b613e5981856147e9565b9350613e69818560208601614b6f565b80840191505092915050565b6000613e80826147cd565b613e8a81856147f4565b9350613e9a818560208601614b6f565b613ea381614d05565b840191505092915050565b6000613ebb601c83614805565b9150613ec682614d3d565b601c82019050919050565b6000613ede6010836147f4565b9150613ee982614d66565b602082019050919050565b6000613f016014836147f4565b9150613f0c82614d8f565b602082019050919050565b6000613f246012836147f4565b9150613f2f82614db8565b602082019050919050565b6000613f476014836147f4565b9150613f5282614de1565b602082019050919050565b6000613f6a6026836147f4565b9150613f7582614e0a565b604082019050919050565b6000613f8d6014836147f4565b9150613f9882614e59565b602082019050919050565b6000613fb06016836147f4565b9150613fbb82614e82565b602082019050919050565b6000613fd3600e836147f4565b9150613fde82614eab565b602082019050919050565b6000613ff6601a836147f4565b915061400182614ed4565b602082019050919050565b60006140196012836147f4565b915061402482614efd565b602082019050919050565b600061403c6012836147f4565b915061404782614f26565b602082019050919050565b600061405f6018836147f4565b915061406a82614f4f565b602082019050919050565b6000614082602e836147f4565b915061408d82614f78565b604082019050919050565b60006140a56037836147f4565b91506140b082614fc7565b604082019050919050565b60006140c8601d836147f4565b91506140d382615016565b602082019050919050565b60006140eb602a836147f4565b91506140f68261503f565b604082019050919050565b600061410e601f836147f4565b91506141198261508e565b602082019050919050565b60006141316018836147f4565b915061413c826150b7565b602082019050919050565b61415081614b49565b82525050565b61416761416282614b49565b614c5c565b82525050565b61417681614b53565b82525050565b60006141888284613e44565b915081905092915050565b600061419f8285613e44565b91506141ab8284614156565b6020820191508190509392505050565b60006141c682613eae565b91506141d28284613df4565b60208201915081905092915050565b60006141ed8288614156565b6020820191506141fd8287613da8565b60148201915061420d8286614156565b60208201915061421d8285613da8565b60148201915061422d8284614156565b6020820191508190509695505050505050565b600061424c8288614156565b60208201915061425c8287613dce565b60018201915061426c8286614156565b60208201915061427c8285613da8565b60148201915061428c8284614156565b6020820191508190509695505050505050565b60006142ab828b614156565b6020820191506142bb828a613e44565b91506142c78289614156565b6020820191506142d78288613da8565b6014820191506142e78287613da8565b6014820191506142f78286614156565b6020820191506143078285613da8565b6014820191506143178284614156565b6020820191508190509998505050505050505050565b60006020820190506143426000830184613d99565b92915050565b600060608201905061435d6000830186613d99565b61436a6020830185613d99565b6143776040830184614147565b949350505050565b600060a0820190506143946000830188613d99565b6143a16020830187613d99565b6143ae6040830186614147565b81810360608301526143c08185613e75565b90506143cf6080830184614147565b9695505050505050565b60006040820190506143ee6000830185613d99565b6143fb6020830184614147565b9392505050565b60006020820190506144176000830184613dbf565b92915050565b60006080820190506144326000830187613de5565b61443f602083018661416d565b61444c6040830185613de5565b6144596060830184613de5565b95945050505050565b6000604082019050818103600083015261447c8185613e0b565b905061448b6020830184614147565b9392505050565b600060208201905081810360008301526144ac8184613e75565b905092915050565b600060208201905081810360008301526144cd81613ed1565b9050919050565b600060208201905081810360008301526144ed81613ef4565b9050919050565b6000602082019050818103600083015261450d81613f17565b9050919050565b6000602082019050818103600083015261452d81613f3a565b9050919050565b6000602082019050818103600083015261454d81613f5d565b9050919050565b6000602082019050818103600083015261456d81613f80565b9050919050565b6000602082019050818103600083015261458d81613fa3565b9050919050565b600060208201905081810360008301526145ad81613fc6565b9050919050565b600060208201905081810360008301526145cd81613fe9565b9050919050565b600060208201905081810360008301526145ed8161400c565b9050919050565b6000602082019050818103600083015261460d8161402f565b9050919050565b6000602082019050818103600083015261462d81614052565b9050919050565b6000602082019050818103600083015261464d81614075565b9050919050565b6000602082019050818103600083015261466d81614098565b9050919050565b6000602082019050818103600083015261468d816140bb565b9050919050565b600060208201905081810360008301526146ad816140de565b9050919050565b600060208201905081810360008301526146cd81614101565b9050919050565b600060208201905081810360008301526146ed81614124565b9050919050565b60006020820190506147096000830184614147565b92915050565b600061471961472a565b90506147258282614ba2565b919050565b6000604051905090565b600067ffffffffffffffff82111561474f5761474e614cd6565b5b602082029050602081019050919050565b600067ffffffffffffffff82111561477b5761477a614cd6565b5b61478482614d05565b9050602081019050919050565b600067ffffffffffffffff8211156147ac576147ab614cd6565b5b6147b582614d05565b9050602081019050919050565b600081519050919050565b600081519050919050565b600082825260208201905092915050565b600081905092915050565b600082825260208201905092915050565b600081905092915050565b600061481b82614b49565b915061482683614b49565b9250827fffffffffffffffffffffffffffffffffffffffffffffffffffffffffffffffff0382111561485b5761485a614c78565b5b828201905092915050565b600061487182614b53565b915061487c83614b53565b92508260ff0382111561489257614891614c78565b5b828201905092915050565b60006148a882614b49565b91506148b383614b49565b9250826148c3576148c2614ca7565b5b828204905092915050565b6000808291508390505b6001851115614918578086048111156148f4576148f3614c78565b5b60018516156149035780820291505b808102905061491185614d30565b94506148d8565b94509492505050565b600061492c82614b49565b915061493783614b53565b92506149647fffffffffffffffffffffffffffffffffffffffffffffffffffffffffffffffff848461496c565b905092915050565b60008261497c5760019050614a38565b8161498a5760009050614a38565b81600181146149a057600281146149aa576149d9565b6001915050614a38565b60ff8411156149bc576149bb614c78565b5b8360020a9150848211156149d3576149d2614c78565b5b50614a38565b5060208310610133831016604e8410600b8410161715614a0e5782820a905083811115614a0957614a08614c78565b5b614a38565b614a1b84848460016148ce565b92509050818404811115614a3257614a31614c78565b5b81810290505b9392505050565b6000614a4a82614b49565b9150614a5583614b49565b9250817fffffffffffffffffffffffffffffffffffffffffffffffffffffffffffffffff0483118215151615614a8e57614a8d614c78565b5b828202905092915050565b6000614aa482614b49565b9150614aaf83614b49565b925082821015614ac257614ac1614c78565b5b828203905092915050565b6000614ad882614b53565b9150614ae383614b53565b925082821015614af657614af5614c78565b5b828203905092915050565b6000614b0c82614b29565b9050919050565b60008115159050919050565b6000819050919050565b600073ffffffffffffffffffffffffffffffffffffffff82169050919050565b6000819050919050565b600060ff82169050919050565b82818337600083830152505050565b60005b83811015614b8d578082015181840152602081019050614b72565b83811115614b9c576000848401525b50505050565b614bab82614d05565b810181811067ffffffffffffffff82111715614bca57614bc9614cd6565b5b80604052505050565b6000614bde82614b49565b91507fffffffffffffffffffffffffffffffffffffffffffffffffffffffffffffffff821415614c1157614c10614c78565b5b600182019050919050565b6000614c2782614c4a565b9050919050565b6000614c3982614c66565b9050919050565b6000819050919050565b6000614c5582614d23565b9050919050565b6000819050919050565b6000614c7182614d16565b9050919050565b7f4e487b7100000000000000000000000000000000000000000000000000000000600052601160045260246000fd5b7f4e487b7100000000000000000000000000000000000000000000000000000000600052601260045260246000fd5b7f4e487b7100000000000000000000000000000000000000000000000000000000600052604160045260246000fd5b6000601f19601f8301169050919050565b60008160f81b9050919050565b60008160601b9050919050565b60008160011c9050919050565b7f19457468657265756d205369676e6564204d6573736167653a0a333200000000600082015250565b7f4272696467652069732070617573656400000000000000000000000000000000600082015250565b7f546f6b656e20616c726561647920657869737473000000000000000000000000600082015250565b7f65787069726564207369676e6174757265730000000000000000000000000000600082015250565b7f546f6b656e20646f6573206e6f74206578697374000000000000000000000000600082015250565b7f416464726573733a20696e73756666696369656e742062616c616e636520666f60008201527f722063616c6c0000000000000000000000000000000000000000000000000000602082015250565b7f427269646765206973206e6f7420706175736564000000000000000000000000600082015250565b7f746f6b656e206973206e6f7420737570706f7274656400000000000000000000600082015250565b7f71756f72756d206e6f74206d6574000000000000000000000000000000000000600082015250565b7f7472616e7366657220616c726561647920636f6d706c65746564000000000000600082015250565b7f696e646578206f7574206f6620626f756e640000000000000000000000000000600082015250565b7f696e76616c6964207369676e6174757265730000000000000000000000000000600082015250565b7f56616c696461746f7220646f6573206e6f742065786973740000000000000000600082015250565b7f6e6f726d616c697a6564416d6f756e7420616d6f756e74206d7573742062652060008201527f67726561746572207468616e2030000000000000000000000000000000000000602082015250565b7f706c65617365207573652077726170416e645472616e7366657245544820746f60008201527f207472616e736665722045544820746f204b6f696e6f73000000000000000000602082015250565b7f416464726573733a2063616c6c20746f206e6f6e2d636f6e7472616374000000600082015250565b7f5361666545524332303a204552433230206f7065726174696f6e20646964206e60008201527f6f74207375636365656400000000000000000000000000000000000000000000602082015250565b7f5265656e7472616e637947756172643a207265656e7472616e742063616c6c00600082015250565b7f56616c696461746f7220616c7265616479206578697374730000000000000000600082015250565b6150e981614b01565b81146150f457600080fd5b50565b61510081614b13565b811461510b57600080fd5b50565b61511781614b1f565b811461512257600080fd5b50565b61512e81614b49565b811461513957600080fd5b50565b61514581614b53565b811461515057600080fd5b5056fea26469706673582212207c213ee246881b012aded5b7d01f6a2c77210a6d9910341408c9f05cc2000a4564736f6c63430008040033",
  "linkReferences": {},
  "deployedLinkReferences": {}
}